S01C000030322D4770696F496E7075742D736F6C7574696F6E2E73333700
S31508000000001000201D060008474C0008474C000851
S31508000010474C0008474C0008474C0008474C000866
S31508000020474C0008474C0008474C0008474C000856
S31508000030474C0008474C0008474C0008474C000846
S31508000040474C0008474C0008474C0008474C000836
S31508000050474C0008474C0008474C0008474C000826
S31508000060474C000829040008954B0008474C00082F
S31508000070474C0008474C0008474C0008474C000806
S31508000080474C0008474C0008474C0008474C0008F6
S31508000090474C00081D0E0008474C0008474C00084E
S315080000A0474C00085D0A00083D0A0008474C00084E
S315080000B0474C0008474C0008474C0008474C0008C6
S315080000C0474C0008474C0008474C0008474C0008B6
S315080000D0474C0008474C0008474C0008474C0008A6
S315080000E0474C0008474C0008474C0008474C000896
S315080000F0474C0008474C0008474C0008474C000886
S31508000100474C0008474C0008474C0008474C000875
S31508000110474C0008474C0008474C0008474C000865
S31508000120474C0008474C0008474C0008474C000855
S31508000130474C0008474C0008474C0008474C000845
S31508000140474C0008474C0008474C0008474C000835
S31508000150474C0008474C0008474C0008474C000825
S31508000160474C0008474C0008474C0008474C000815
S31508000170013800D0FCE770470348044B834202D09D
S31508000180034B03B118477047FC150020FC150020E7
S3150800019000000000064B0749C91A891048BF0131FB
S315080001A0491003D0044B0BB101481847704700BFEC
S315080001B0FC150020FC1500200000000010B5064CB8
S315080001C0237843B9FFF7D8FF044B13B10448AFF3BC
S315080001D000800123237010BD2815002000000000B0
S315080001E0B061000808B5054B1BB105490548AFF3D2
S315080001F00080BDE80840FFF7CDBF00BF0000000043
S3150800020000100020B0610008A3F5803A704700BFCF
S31508000210174B002B08BF134B9D46FFF7F5FF002130
S315080002208B460F461348144A121A04F09FFF0E4BCA
S31508000230002B00D098470D4B002B00D09847002084
S31508000240002104000D000D48002802D00C48AFF329
S31508000250008003F0DBFE2000290004F067FC03F0B1
S31508000260C3FE00BF000008000000000000000000F8
S315080002700010002000100020541500200000000087
S315080002800000000038B5124C04F086FC04F085FC2A
S315080002901049206804F0DAFD01213A2001F080F9BE
S315080002A0012202211046002302F080FB0A4B0B4D67
S315080002B05B6FC3F380032B6004F06EFC04F06DFCE7
S315080002C02A6820680649BDE8384004F0BFBD00BF6B
S315080002D0F01000203859000800C0035018100020FC
S315080002E05359000838B50A4B0A4D5C6F2B68C4F39E
S315080002F08004A3420AD004F04FFC04F04EFC064BDF
S3150800030022460649186804F0A1FD2C6038BD00BFD6
S3150800031000C0035018100020F01000204F590008A4
S31508000320064B1B681A7A022A04D812B11B68044ABB
S3150800033013607047032AF9D0704700BF5415002090
S315080003401C10002070B5264DA8B012AC0FCD0FC4F6
S3150800035095E80700292384E80700224A0024CDE906
S3150800036003230523CDE905448DF8153006238DF8BA
S3150800037017304FF48023CDE909440B94089319AD3F
S3150800038008AECDE90E44079410940FCE0FC5164B50
S315080003900DAE2B60154B1EAD0D930FCE0FC520214C
S315080003A0134B14482B60144B12AA2393134B269411
S315080003B0CDE92413124B19A92793124B009303ABCB
S315080003C003F016FD044618B19B210F4804F049FCBA
S315080003D000214FF4E13004F028FC204628B070BD17
S315080003E09C59000800C0055024C0055002000400AE
S315080003F03CC00550D410002029150020000101003A
S3150800040068150020201000206759000808B5FFF776
S3150800041099FF28B1BDE80840CB21024804F021BC69
S3150800042008BD00BF67590008014803F09BBD00BF1F
S31508000430D4100020012208B5074B1A700022074B7A
S315080004401A700422064B1A701F22064B1A7003F004
S315080004501BF8054B186008BDF21500204915002049
S31508000460F1150020F0150020F010002008B504480A
S3150800047005F0EBF904F064FBBDE8084000F008B8A5
S31508000480545F0008014805F0E0B900BF545F000852
S315080004902DE9F047534E96B0354609AC0FCD0FC43B
S315080004A02B6806F1140523600EAC0FCD0FC495E832
S315080004B00F00DFF8488184E80F004B4805F0C5F9BE
S315080004C0404605F0C2F94FF48073484FADF83C300A
S315080004D0474B38460B9309A90EAB0D9302F02CF93E
S315080004E004210225B6F834A00DEB01000122ADF86F
S315080004F004A000F005FAB6F836900022012102A8F9
S31508000500ADF8089000F0FCF9368F0122042103A803
S31508000510ADF80C6000F0F4F90122042104A8354C6A
S31508000520ADF8105000F0ECF9334B4FF44870C4F8AE
S31508000530C8344FF00213C4F8C43403F58033C4F842
S31508000540CC341C23C4F8B43403F022FD08A8ADF853
S31508000550205000F045FA142003F01AFD08A8ADF85B
S31508000560205000F00FFA232003F012FD08A8ADF87A
S31508000570205000F035FAB921384604F0E9FB08A8FE
S31508000580ADF8205000F0FEF9002205A81146ADF896
S3150800059014A000F0B5F9002206A81146ADF8189087
S315080005A000F0AEF90122002107A8ADF81C6000F0A2
S315080005B0A7F90122002108A8ADF8205000F0A0F9FB
S315080005C0384601F073FF00234046C4F8B434C4F833
S315080005D0C834C4F8C434C4F8CC3405F039F916B0B4
S315080005E0BDE8F087B8590008545F000800000A50B3
S315080005F0E070720000C0035002000100585F000856
S315080006000348044A0449121A921004F01DBB00BF9D
S3150800061070010008700100085415002008B5154B34
S3150800062083F30A8800F030F8FFF7EAFF124B134904
S315080006308B4212D30020124B12498B4218D3FFF774
S31508000640E7FD186850F82240586840F82240013201
S3150800065098688242F5D30C33EAE70022F8E71C686B
S3150800066044F8220001325C68A242F8D30833E4E772
S315080006700022F8E700000020B8610008C4610008FD
S31508000680C4610008C46100084FF48041124B134A44
S3150800069070B59A60D3F88820114D42F47002C3F8F9
S315080006A08820104A05F5005491664FF0FF322266FD
S315080006B00D4A62660222C3F8D020BFF34F8FBFF3FC
S315080006C06F8F4FF44036002002F080FE0020E6606F
S315080006D002F04AFE2E6170BD00ED00E00000000841
S315080006E00080004400900050F7FF3700014B186067
S315080006F0704700BF80150020054B1860054B1B6F1F
S3150800070003F00703032B01D104F054BF704700BF61
S31508000710881500200080005038B504460D4601B102
S3150800072018B94521044804F09CFA236813B92B60CC
S31508000730256038BD1C46F8E7F259000810B504468E
S3150800074018B95621044804F08CFA206818B10368D1
S3150800075023600023036010BDF2590008002307B583
S315080007602948019305F071F84FF4407301220421DA
S315080007706846ADF8003000F0C3F80122234B052087
S31508000780C3F8442401A905F05BF8002839D1204BA9
S31508000790D3F8F02042F00102C3F8F020D3F8FC2089
S315080007A042F08072C3F8FC201A4AA3F55D431A602A
S315080007B0019B194A03F5D52303F2FC43B3FBF2F375
S315080007C0164A013B13610223C2F8F0304FF48073D6
S315080007D0C2F804334FF06043114AC3F8B02F114AE8
S315080007E0C3F8802ED3F8002E42F48072C3F8002E88
S315080007F0FF2283F82020D3F8002E22F48072C3F853
S31508000800002E03B05DF804FB545F000800D00350C7
S3150800081000ED00E0FF030040F8590D00000004E079
S3150800082055CEACC5090001004FF06043D3F8802EC1
S3150800083030B5D20715D501240B4D8440D5F8FC20D8
S3150800084042F08072C5F8FC20D3F8002E2243C3F884
S31508000850002E53F82020002AF0D003F8201000209C
S3150800086030BD1120FCE700BF00ED00E02DE9F041A6
S3150800087004460C254FF00108124E0CB314F0010083
S315080008800BD0002024F0010405FB00625768002FF6
S31508000890F3D09168C0B2B847EFE722460130202866
S315080008A04FEA520201D0D307F8D508FA00F20F280A
S315080008B024EA0204E8D9103805FB0062B432E5E7F9
S315080008C0BDE8F081F410002008B50C4804F0BDFF1F
S315080008D0192002F063FD28B1192002F077FD1920CE
S315080008E002F042FD1A2002F059FD28B11A2002F042
S315080008F06DFD1A2002F038FD002008BD545F00087F
S315080009002DE9F0410E461746044638B993211A4890
S3150800091004F0A7F922252846BDE8F0810F290CD84E
S31508000920037883B1013BDBB2022B06D8134A32F8AF
S3150800093013306278D340DB0707D497210E4804F0BA
S3150800094090F92125E7E7FF23F3E70D4BD3F810537A
S315080009502DB19B21084804F084F90225DBE704F051
S3150800096069FF80463A462046314602F01BFB404660
S3150800097004F05BFFCFE700BF485A0008A25A0008F8
S3150800098000C0035038B5044628B91348E42104F0DA
S3150800099068F9222038BD037883B1013BDBB2022B0C
S315080009A006D80E4A32F813306278D340DB0707D4EC
S315080009B00948E82104F055F92120EBE7FF23F3E77E
S315080009C004F038FF0546204604F0CAFE284604F01F
S315080009D02CFF0020DEE700BF485A0008A25A00088C
S315080009E038B5044628B91348FC2104F03AF9222000
S315080009F038BD03788BB1013BDBB2022B06D80E4A11
S31508000A0032F813306278D340DB0708D409484FF42C
S31508000A10807104F026F92120EAE7FF23F2E704F0C3
S31508000A2009FF0546204602F087FA284604F0FDFE2F
S31508000A300020DDE7485A0008A25A000808B502F067
S31508000A40A7FA054B00F0553020F05020C3F82004D3
S31508000A50BDE80840FFF70ABF00E0035008B502F0FA
S31508000A6097FA054B00F0AA3020F0A020C3F820041E
S31508000A70BDE80840FFF7FABE00E003502DE9F04F45
S31508000A809A46564B85B01B7806460F461546DDF83E
S31508000A903C909DF844B0DDF85080002B00F097801C
S31508000AA0072A00F296800E9B002B00F09280B9F17F
S31508000AB0000F00F08E80129BB3F5006F00F389805B
S31508000AC0012803D1109B002B00F08380444B03EBD5
S31508000AD005131B7B002B7ED0424C10220021684652
S31508000AE004F044FB04EB45141022A7BB3946204604
S31508000AF004F03CFB43F210036380BBF1000F03D103
S31508000B00E37843F00303E370364A0E9B02EB451C79
S31508000B10CCE90193129B6901581E9DF84C30C0F32D
S31508000B200A0003F003039B0643EA001E53582E48A7
S31508000B30012E00EA03004EEA0003CDF800A0535048
S31508000B4017D0B8F1000F2ED19CF8023068F30413C1
S31508000B508CF8023027E00021204604F007FB4FF40A
S31508000B6044736380BBF1000FCED1E37843F03003C2
S31508000B70C9E713230CF1100ECCF80C309CE80F00D3
S31508000B808EE80F006FF00301DCF81C20109B61F360
S31508000B909F02012FCCF81C20CCF8143003D1CCF8D6
S31508000BA01890CCF8043000270D4A290102EB0513EA
S31508000BB042F80180159A28465A60694622469F607F
S31508000BC05E7301F0BBFF384605B0BDE8F08F0748F5
S31508000BD0FAE70748F8E70748F6E700BF4A1500208E
S31508000BE05C1300205C1200200F80FFF3028000F0E7
S31508000BF0018000F0078000F038B5124B05461B78D7
S31508000C00DBB1E0B104F016FE0F4A00231146147B4F
S31508000C1054B92B6001251A0101EB03131D738C507F
S31508000C2004F003FE204638BD0133082B02F11002FA
S31508000C30EDD104F0FAFD0548F5E70548F3E7054860
S31508000C40F1E700BF4A1500205C130020048000F07D
S31508000C50028000F0018000F038B504F0EBFD0023B7
S31508000C6005460B4A147B6CB90133082B02F11002B6
S31508000C70F8D101F0E5FE074B28461C7004F0D5FDB7
S31508000C80204603E0284604F0D0FD034838BD00BFDF
S31508000C905C1300204A150020058000F00D4B10B5A6
S31508000CA01B78044693B1072812D804F0C3FD0A4BF3
S31508000CB003EB04131A7B2AB100241C7304F0B5FD58
S31508000CC0204610BD04F0B1FD0448FAE70448F8E7E9
S31508000CD00448F6E74A1500205C130020068000F059
S31508000CE0028000F0018000F0154B13B51868002348
S31508000CF001908DF8043004F09DFD124B1C7824B148
S31508000D0004F093FD104802B010BD01221A7004F0D9
S31508000D108CFD0E4B01A81C731C7783F82C4083F8B6
S31508000D203C4083F84C4083F85C4083F86C4083F879
S31508000D307C4008238DF8073001F0B8FE2046E2E72C
S31508000D40A85A00084A150020038000F05C1300200A
S31508000D50F8B50D4D2D7885B1072810DC0B4D060129
S31508000D6005EB0014277B67B1AB510025069BA560F0
S31508000D70636001F0E3FE2846F8BD0548FCE7054830
S31508000D80FAE70548F8E700BF4A1500205C1300207B
S31508000D90028000F0018000F0078000F00A4A08B5DA
S31508000DA012785AB107280BD8084A02EB00131B7BA6
S31508000DB043B1002101F05AFE002008BD0448FCE7B3
S31508000DC00448FAE70448F8E74A1500205C130020AF
S31508000DD0028000F0018000F0078000F00A4A08B59A
S31508000DE012785AB107280BD8084A02EB00131B7B66
S31508000DF043B1012101F03AFE002008BD0448FCE792
S31508000E000448FAE70448F8E74A1500205C1300206E
S31508000E10028000F0018000F0078000F0184B2DE9F1
S31508000E20F0411F6D5B6D1F4000D5FEE701260025CA
S31508000E30144CDFF85880374218D02368C8F8506039
S31508000E40A3B1A168284601316268A1609847637B0F
S31508000E50012B0BD150B90C4B03EB45131A7B60F3EE
S31508000E6041021A731A7F60F341021A770135082D79
S31508000E704FEA460604F11004DDD1BDE8F08100BF53
S31508000E80000004505C1300205C120020002004506F
S31508000E90044BD3F88420D206FBD4D3F88400C0F3DD
S31508000EA0811070470040005038B5104B0546D3F8FE
S31508000EB000310C4603F00303022B0BD0032B0DD095
S31508000EC0012B0FD104F090FB032305B1286004B170
S31508000ED0236038BD04F0DAFB0923F6E704F08AFB41
S31508000EE00823F2E701230020EFE700BF0080005047
S31508000EF038B5104B0546D3F840310C4603F00303CA
S31508000F00022B0BD0032B0DD0012B0FD104F07EFC46
S31508000F100A2305B1286004B1236038BD04F0B6FB86
S31508000F200923F6E704F075FC0C23F2E701230020F9
S31508000F30EFE700BF0080005038B5104B0546D3F8E0
S31508000F4060310C4603F00303022B0BD0032B0DD0A4
S31508000F50012B0FD104F05AFC0A2305B1286004B10D
S31508000F60236038BD04F092FB0923F6E704F051FC30
S31508000F700C23F2E701230020EFE700BF00800050B2
S31508000F8038B5104B0546D3F840320C4603F0030338
S31508000F90022B0BD0032B0DD0012B0FD104F036FCFE
S31508000FA00A2305B1286004B1236038BD04F06EFB3E
S31508000FB00923F6E704F02DFC0C23F2E701230020B1
S31508000FC0EFE700BF0080005038B5124B0546D3F84E
S31508000FD080300C4603F00303022B0BD0032B0DD0F5
S31508000FE0012B0FD104F0C6FA0E2305B1286004B10F
S31508000FF0236038BD04F002FB0723F6E704F0B4FAD1
S315080010000623F2E7044841F2142103F02AFE0023DE
S315080010101846EAE700800050AC5A000838B51A4B63
S315080010200546D3F820010C4600F00700062821D80B
S31508001030DFE800F028040C1410181C0004F094FAD9
S31508001040052305B1286004B1236038BD04F0CCFA45
S315080010500323F6E704F0D2FA0723F2E704F0C0FA0E
S315080010600223EEE704F080FA0623EAE704F0BCFA66
S315080010700423E6E7054841F2912103F0F2FD002337
S315080010801846DEE70123DCE700800050AC5A00086A
S3150800109038B5194B0546D3F828310C4603F0070333
S315080010A0013B052B20D8DFE803F003131B0F0B17B2
S315080010B004F05AFA052305B1286004B1236038BD47
S315080010C004F052FA0623F6E704F098FA0723F2E743
S315080010D004F08AFA0323EEE704F086FA0423EAE723
S315080010E004F07EFA0223E6E7044841F2990103F088
S315080010F0B8FD00231846DEE700800050AC5A000809
S31508001100002337B50193194B0546D3F820320C4610
S3150800111003F00703042B1FD8DFE803F025030F1499
S315080011201900002101A8FFF7B3FF12230DB1019A98
S315080011302A6004B1236003B030BD04F05FFA0723C8
S315080011400190F3E704F062FB0A230190EEE704F04E
S315080011509DFA09230190E9E741F25601044803F094
S3150800116080FD0023E2E70123E0E700BF008000508E
S31508001170AC5A0008F7B50027144B0197D3F88041FD
S31508001180064604F00304022C0D4614D0032C0DD099
S31508001190012C14D1394601A8FFF740FF10240EB1DF
S315080011A0019B336005B12C6003B0F0BD04F026FA4C
S315080011B007240190F3E704F013FA0190EFE741F2F0
S315080011C0E631034803F04DFD3C46E8E70080005051
S315080011D0AC5A000838B5164B0546D3F800020C463B
S315080011E000F00700042819D8DFE800F020030B0FE9
S315080011F0130004F00BFB0A2305B1286004B1236031
S3150800120038BD04F043FA0923F6E704F002FB0C2381
S31508001210F2E704F0CFF90F23800AEDE7054841F21B
S31508001220A44103F01EFD00231846E5E70123E3E782
S3150800123000800050AC5A000838B5164B0546D3F85E
S3150800124008020C4600F00700042819D8DFE800F069
S3150800125020030B0F130004F0D9FA0A2305B12860FE
S3150800126004B1236038BD04F011FA0923F6E704F047
S31508001270D0FA0C23F2E704F09DF90F23800AEDE774
S31508001280054841F2DC4103F0ECFC00231846E5E78B
S315080012900123E3E700800050AC5A0008002337B565
S315080012A00193184B0546D3F860320C4603F0070342
S315080012B0013B032B1FD8DFE803F0020E19140021A7
S315080012C001A8FFF7ABFE10230DB1019A2A6004B1FD
S315080012D0236003B030BD002101A8FFF709FE1123E2
S315080012E0F2E704F08BF907230190EDE704F078F9AB
S315080012F002230190E8E741F2FD01034803F0B1FC3F
S315080013000023E1E700800050AC5A0008002337B5F7
S315080013100193184B0546D3F894320C4603F007039D
S31508001320013B032B1FD8DFE803F0020E1914002136
S3150800133001A8FFF773FE10230DB1019A2A6004B1C4
S31508001340236003B030BD002101A8FFF7D1FD1123AA
S31508001350F2E704F053F907230190EDE704F040F9AA
S3150800136002230190E8E741F23011034803F079FCC3
S315080013700023E1E700800050AC5A000873B500244A
S315080013800F4B0194D3F87032064603F00303012B82
S315080013900D4607D0022B11D041F25B11094803F024
S315080013A060FC04E0214601A8FFF7A2FD11240EB156
S315080013B0019B336005B12C6002B070BD1524F6E7B9
S315080013C000800050AC5A000808B5334B98424FD0FD
S315080013D027D8324B984245D017D8314B98423ED041
S315080013E00AD838B12F4B984239D041F2BB312E4832
S315080013F003F037FC002034E02C4B98422FD02C4BBE
S315080014009842F2D12B4B586E2BE02B4B98422CD09E
S3150800141003F5371303F5D8639842E6D1254B986F41
S315080014201FE0264B98422FD00CD8254B984223D044
S31508001430244B984224D0244B9842D6D11D4BD3F83E
S3150800144084000EE0214B984222D003F5740303F57D
S3150800145010539842C9D1174BD3F8980001E0154BA1
S31508001460986D08BD134B186FFBE7124B586FF8E7DA
S31508001470104BD3F88000F4E70E4BD3F88800F0E75A
S315080014800C4BD3F88C00ECE70A4BD3F89000E8E74E
S31508001490084BD3F89400E4E780BA8C01405DC60097
S315080014A080841E0040420F00AC5A000800093D0027
S315080014B0C0CF6A000080E00F0024F400007E5603C7
S315080014C080D54302006CDC020048E8010090D00396
S315080014D0B0F5207F10B52ED009D8B0F5007F24D0FE
S315080014E003D868B1B0F5C07F0AD000241BE0B0F578
S315080014F0607FFAD1124BD3F88040C4F3011412E08E
S315080015000F4B1C6F230B13F00E0FC4F303340AD0D2
S31508001510072C08D00F2C06D0032C04D04FF42271C8
S31508001520084803F09EFB601C10BD054BD3F890409D
S31508001530C4F30464F7E7024B1C6FC4F38024F2E794
S3150800154000800050AC5A00084FF4803238B5104B72
S3150800155004469A6600200D46FFF7BAFF41F6713237
S315080015600C4B6043DC69DA635A6804F4803422F46D
S3150800157040125DB90849884294BF00200120000541
S3150800158002435A600CB10022DA6338BD0349F2E718
S315080015900090005000000350005A6202002D3101ED
S315080015A038B5430904460D460ED140F235310D488B
S315080015B003F057FB002304F01F0485B103F580539D
S315080015C00122A2401A6038BD012B04D0022B04D098
S315080015D040F24331EBE7044BEDE7044BEBE703F549
S315080015E00053EDE7AC5A000864800050688000504C
S315080015F0002130B5B0F5807F85B00446CDE90011ED
S3150800160000F0D3803DD85E2833D85E2833D8DFE88B
S3150800161000F04832323232323232323232323232FA
S31508001620323232323232323232323232323232328C
S31508001630323248AD48ADBDBDBDBDBDADC7516EDD8D
S3150800164051ADADAD3232323232323232ADADAD811C
S31508001650E7AD32323232323232323232323232BDA1
S31508001660484848E25151EC9066C2323232323298DA
S31508001670480080286AD040F2A441604803F0F1FA95
S3150800168067E0B0F5D06F00F0A18035D8B0F5607F7F
S3150800169077D01AD8B0F5007F5ED005D8B0F5C07FF0
S315080016A0E9D103F087FF53E0B0F5207F5ED0B0F5AF
S315080016B0407FE0D103F07EFF04464FF42070FFF729
S315080016C007FFB4FBF0F4640859E0B0F5B06F67D0D3
S315080016D00AD8B0F5806F59D0B0F5A06FCBD10021EC
S315080016E06846FFF70DFD34E0B0F5C06FC3D10021A1
S315080016F06846FFF7FDFB2CE0B0F5106F6BD00ED8EF
S31508001700B0F5086F76D0B6D8B0F5E06F68D0B0F50A
S31508001710F06FB0D100216846FFF70EFC19E0B0F56E
S31508001720406F38D00AD8B0F5206F5ED0B0F5286F74
S31508001730A1D100216846FFF721FE0AE0B0F5486FFF
S3150800174099D100216846FFF7E1FD02E003F012FF98
S315080017500090009805B030BD03F00CFF0546204602
S31508001760FFF7B6FEB5FBF0F50095F2E703F022FFAA
S3150800177004464FF42070FFF7ABFEB4FBF0F4009478
S31508001780E7E701A8FFF720FC019DE8E70021684686
S31508001790FFF744FCDDE700216846FFF779FCD8E748
S315080017A000216846FFF7E6FCD3E74FF0E0230291F5
S315080017B01B695B0705D503F0FDFE0290029B0093AB
S315080017C0C7E703A902A8FFF793FBF7E700216846D6
S315080017D0FFF700FDBDE700216846FFF72DFDB8E7D6
S315080017E000216846FFF7CCFBB3E700216846FFF700
S315080017F055FDAEE76846FFF757FBAAE7AC5A00085F
S3150800180008B58020FFF7F4FE034B98429EBF4FF4BD
S315080018108032024B1A6708BD005A620200A00050C7
S315080018201FB503460020B3F5807F019000F0C58000
S3150800183063D85D2B54D84C2B06D82D2B46D8232B92
S315080018402AD840F28951A7E04D3B102BF9D801A2BE
S3150800185052F823F0B1190008431800084318000885
S31508001860431800085B1900084318000843180008C5
S315080018700B1A0008791900081F190008011A000830
S3150800188043180008431800084318000843180008BE
S3150800189043180008151A0008243B092BD1D801A2C1
S315080018A052F823F0B1190008B1190008B119000857
S315080018B0B1190008B119000843180008A119000851
S315080018C0431800083B190008E71900083D2B00F0EB
S315080018D085803E2BB5D1002001A9FFF751FB63E0B7
S315080018E0802BAED14E4B1B6F03F00703013B032B36
S315080018F050D8DFE803F04D46494BB3F5F06F6DD08D
S3150800190020D8B3F5B06F4BD00ED8B3F5607F73D03F
S3150800191097D3B3F5806F4BD0B3F5A06F91D1002064
S3150800192001A9FFF7EDFB3FE0B3F5D06F5BD0B3F548
S31508001930E06FD0D0B3F5C06F83D1002001A9FFF7BF
S31508001940D7FA31E0B3F5206F5FD00BD8B3F5086F3F
S315080019504ED0B3F5106F7FF474AF002001A9FFF7DE
S315080019606BFC21E0B3F5406F4AD0B3F5486F51D010
S31508001970B3F5286F7FF465AF002001A9FFF7FEFCD9
S3150800198012E0052301930FE00323FBE70823F9E799
S315080019900223F7E740F2D641224803F062F903E052
S315080019A0002001A9FFF7E6FB019805B05DF804FBE6
S315080019B0002001A9FFF732FBF6E74FF0E02302907B
S315080019C01B695B0705D503F0F5FD0D230393039B00
S315080019D0D8E703A902A8FFF78BFAF8E7002001A9C0
S315080019E0FFF7AAFAE0E7002001A9FFF7F3FBDBE718
S315080019F001A9FFF759FAD7E701A9FFF7E5FAD3E7EF
S31508001A00002001A9FFF744FBCEE7002001A9FFF754
S31508001A1045FCC9E7002001A9FFF778FCC4E700BF29
S31508001A2000800050AC5A00084FF48032074B084932
S31508001A30586E03F580535A664B6A23F001034B62CE
S31508001A40C3035CBF034B5A66704700BF0080005053
S31508001A5000C0075000A0005038B5036804460F2B95
S31508001A6004D940F68A317C4803F0FBF863680F2BEB
S31508001A7004D940F68D31784803F0F3F8A3680F2BA4
S31508001A8004D94FF43961744803F0EBF8237B0F2B24
S31508001A9004D940F69331704803F0E3F8637B0F2BC3
S31508001AA004D940F696316C4803F0DBF8A37B3F2B4C
S31508001AB004D940F69931684803F0D3F8E37B3F2B05
S31508001AC004D940F69C31644803F0CBF82369032B0C
S31508001AD004D940F69F31604803F0C3F86369032BC5
S31508001AE004D940F6A2315C4803F0BBF8E369032B3E
S31508001AF004D940F6A531584803F0B3F88020FFF71B
S31508001B008FFE032800F083804FF48012534B4FF06A
S31508001B10A0615A6645F60E02514BC3F88020514A19
S31508001B2091624FF4803102F5805291629A6DD20328
S31508001B30FCD4996D11F08041FBD1D4E9000212055D
S31508001B4042EA0062E07B0243207B42EA0042607B75
S31508001B5042EA0032A07B42EA80121A619869D4E907
S31508001B600452120642EA856200F000400243A07E53
S31508001B70E57E0243207E42EA0042607E42EA002277
S31508001B809A611A6AE06922F00F0242EA8502364D26
S31508001B9000283DD11A6294F82420996A94F8200006
S31508001BA0D200294042EA40120A4394F8211042EA38
S31508001BB0011242F480329A622C49294A936D31EA1D
S31508001BC00303FBD14FF08071264881621369A5682B
S31508001BD023F4700343EA055313614FF0004383610E
S31508001BE094F822300BB9224B996294F823303BB90A
S31508001BF04FF480321E4B9A62194A936D5B00FCD4EF
S31508001C0094F825301BB1164B1A4AC3F8802038BD04
S31508001C10024342F0080202281A6208D119614FF4F9
S31508001C200852996114484FF47F4103F04FF80C4964
S31508001C3094F822308A6A94F820001B062A4043EA60
S31508001C404013134394F8242043EAC20394F823204C
S31508001C5043EA02438B62D3E7AC5A0008009000506F
S31508001C600040005A0050005AC7FFFEFE030001005C
S31508001C700060005AF1A7FFFF3440005A014B93F960
S31508001C8000007047F3150020436810B5072B04467B
S31508001C9004D940F6E6512A4802F0E3FFA368032B6D
S31508001CA004D940F6E851264802F0DBFF2378032BD7
S31508001CB004D940F6EA51224802F0D3FF94F90130DC
S31508001CC0002B04DA40F6EC511D4802F0CAFF4FF427
S31508001CD000011C4A637851664FF4D151022002F57F
S31508001CE0B832516218494F2B48604FF0010028BF9F
S31508001CF04F2301F5805148601169C903FCD4217846
S31508001D0043EA01235361D4E901131B0143EA012382
S31508001D10617B0B43217B43EA41039360E37BA17B11
S31508001D201B0143EA4113617C0B43217C43EA4103CF
S31508001D305360A37C13B16FF4D153536210BD00BF37
S31508001D40AC5A00080090005000100250014B188051
S31508001D50704700BFEE150020014B1880704700BF82
S31508001D60EC1500204FF4800208B5184B5A6602237A
S31508001D70174A5360936813F48033FBD1012822D1A4
S31508001D8003F032FC134B984215D003F5122303F5E2
S31508001D90F863984213D0104B00EB8002400AB3FB5D
S31508001DA0F0F3520A0A49CA620B6301234B62002206
S31508001DB0074B5A6008BD45F67A13084AF2E745F616
S31508001DC01A03074AEEE75362F1E700BF0090005096
S31508001DD00040025000F0490264666666D8B80500FD
S31508001DE0BBCF0500B0F5207F38B577D00ED8B0F553
S31508001DF0007F61D003D890B3B0F5C07F2FD04FF4E1
S31508001E004671BDE838403D4802F02BBFB0F5607F0B
S31508001E10F5D13B4A4C1ED2F8FC5015F080751EBF12
S31508001E20D2F8FC3023F08073C2F8FC30032C04D9B6
S31508001E3040F2F721314802F014FF324AD2F88030D6
S31508001E4023F0300343EA0413C2F8803035B12C4A34
S31508001E50D2F8FC3043F08073C2F8FC3038BD4C1E13
S31508001E60012C0AD9102903D8274BCB40DB0704D409
S31508001E7040F2CB21214802F0F4FE02F036FF02F0D0
S31508001E8042FF4FF48031214B1E4A1967136F23F422
S31508001E90704343EA0433136703F08CFB0446FEF7EA
S31508001EA0F7FFC0F10201204602F027FF00F048F8CC
S31508001EB0BDE83840FFF7A4BC4C1E1F2C04D94FF4CC
S31508001EC043710E4802F0CDFE0E4AD2F8903023F048
S31508001ED0F85343EA0463C2F89030BFE74C1E012C5E
S31508001EE004D940F21231054802F0BBFE054A136FC9
S31508001EF023F4806343EA84231367AFE7AC5A0008E8
S31508001F0000ED00E000800050100101000090005034
S31508001F1008B50121022000F099F94FF42070FFF767
S31508001F20D7FA054B187002F0E0FE02F0ECFE4FF40B
S31508001F308032024B1A6708BD4B15002000900050EE
S31508001F4008B54FF4C070FFF753FBBDE808400449D5
S31508001F50884294BF012102214FF42070FFF742BF47
S31508001F6080F0FA0238B5044603F024FB0546FEF76E
S31508001F708FFFC0F10201284602F0BFFE01210020B2
S31508001F8000F0B8F92CB1FFF7DBFFBDE83840FFF7E2
S31508001F9037BC034B4FF420701978FFF723FFF4E79B
S31508001FA04B1500202DE9F0410546FFF70DFA431EB3
S31508001FB00333044604D940F6E2113B4802F051FEC9
S31508001FC04FF4C022394B5A6603F598335A68012AEA
S31508001FD004D137494A605A689207FCD48020FFF733
S31508001FE01FFC052807D102F080FE02F08CFE4FF494
S31508001FF080322E4B1A672F4B24F040749D4239D0FD
S315080020002D4B9D4239D003F0AFFA8542064603D9D7
S315080020100121284600F06EF9284FFB6813F0060FD9
S31508002020FBD1D7F80880BC60BB68634013F4F81F7F
S3150800203026D12846FEF75AFB8020FFF7F1FB052834
S3150800204014D103F0B7FAA842044604D940F63B2156
S31508002050154802F006FEFEF71BFFC0F102012046F6
S3150800206002F04BFEFFF76CFFFFF7CAFBAE4213D236
S31508002070BDE8F08144F00074C5E744F08074C2E717
S3150800208040F62A21084802F0ECFD8020C7F80880AF
S31508002090FFF7C6FB052805D0BDE8F0410121002061
S315080020A000F028B93546CCE7AC5A00080090005035
S315080020B000E0015040420F0080841E0000000150DD
S315080020C04E4B70B59842054673D041D8A3F5B70371
S315080020D0A3F55863984265D033D8494B494E984280
S315080020E051D017D8002877D041F2DE11464802F0C1
S315080020F0B8FD40F68671444802F0B3FD4FF400225D
S31508002100404B5A663E4B9D4276D000243F4A954244
S3150800211036D05DE03D4B984227D03D4B9842E3D1FF
S315080021203C4BD3F8A040621E033224F040744CD9CD
S3150800213040F68671344802F094FD4FF40023736626
S31508002140E4E7354B9842CFD1324BD3F8BC402CE06C
S31508002150324B984231D0324B984232D0314B98426A
S31508002160C2D12C4BD3F8C8401FE02A4BD3F8A04065
S31508002170621E033224F04074DAD84FF400237366E3
S3150800218044F0807424E0234BD3F8A040621E033247
S3150800219024F040742AD84FF400237366234643F08C
S315080021A0007415E01B4BD3F8B840621E154E033277
S315080021B0BBE7184BD3F8C040F7E7164BD3F8CC402B
S315080021C0F3E7144BD3F8D040EFE74FF400237366D8
S315080021D04FF0B442946070BD40F686710A4802F02A
S315080021E040FD4FF400232C467366F1E740F68671EE
S315080021F0054802F036FDCEE70023D0E7C0EA210104
S3150800220040420F0000900050AC5A000880841E001F
S3150800221000093D000080E00F0024F4000048E801B2
S31508002220005A620280BA8C01024A536B0342FCD1FF
S31508002230704700BF00400950034A0179D36E23F066
S3150800224030030B43D366704700400050F8B5044688
S31508002250244BD3F88420D006FBD4D3F88430C3F3B8
S3150800226081139C423CD003F085F9012C05460BD11D
S315080022701D4B984204D940F29B711C4802F0F1FCB0
S315080022800121284602F039FD03F0CBFA4FF000721F
S31508002290174B07465A66204602F03AFD4FF480630C
S315080022A0104E621E93403367736E9A0103D4D6F8B4
S315080022B084309B060AD5384603F0AEFA022C0FD1B5
S315080022C02846BDE8F840002102F017BDD6F884304C
S315080022D09906E9D540F2B371044802F0C2FCE3E777
S315080022E0F8BD00BF00400050005A6202FF5A0008BD
S315080022F00060005010B50C4608B903F03BF9074BCF
S3150800230021461B783BB1064B984204D80120BDE80C
S315080023101040FFF79BBF0220F9E700BF4C150020CD
S31508002320005A62024FF0004238B5244B244C5A66D4
S315080023304AF6CD33656C014605F00105236428BBD2
S315080023400120FFF771FF6368DB0715D51D4B586041
S3150800235008461D4B226BD2070CD4984208D1072495
S3150800236015B1174B194A1A6402F0D3FC204638BD3A
S315080023700130EFE79842F2D00024F1E70132236BEF
S3150800238013F0080305D08A42F8D1E8E700220E497F
S31508002390F5E78A42E3D020210A4A91620121A2F593
S315080023A0805251600649084A886A800603D49342D7
S315080023B0D5D00133F8E79342DDE700BF009000501F
S315080023C0004009500060095040420F003254FFFF98
S315080023D04FF0004238B5164B01465A664AF6CD33D9
S315080023E0144C154A656C236443780B205B0043F054
S315080023F00103D363FFF718FF63688A7823F4F87339
S3150800240043EA02136360CA784B7943EA0223A3605E
S315080024100A798B7943EA022323610878FFF782FF5A
S31508002420EB0744BF054B236402F073FC012038BD5B
S315080024300090005000400950004000503254FFFF01
S315080024400F2870B5044605D940F67461124802F0A3
S3150800245008FC0F244FF00042104B11495D6E03F53E
S3150800246080535A664AF6CD334E6C80200B64FFF7CC
S31508002470DBFE0B6A23F00F0323430B62F30744BF0B
S31508002480084B0B64002DA2BF4FF00042064B5A665C
S3150800249002F03FFC70BD00BFFF5A000800800050E4
S315080024A0004009503254FFFF00A0005010B502F05A
S315080024B035FC042300F5805100F500520B611361C9
S315080024C00B6113610B6113610B611361202341F2E8
S315080024D0020103610023C360836041614FF4A021B8
S315080024E08361836541620549C36103628362C3628E
S315080024F043630365D164036310BD00BFFF3F0D034B
S3150800250038B5174B044698420D4607D0154B9842E6
S3150800251004D040F26911144802F0A3FB25B92046FD
S31508002520BDE8384002F0FABB012204F580535A6030
S3150800253040F6FF71204605F00F0202F0EBFBA2639E
S31508002540782102F0E7FB05F001036A0748BF43F06C
S315080025500203A26C02F003029A42FAD138BD00BF08
S315080025600000015B00000A50525B0008F8B50546FA
S315080025700C46164622B940F227216B4802F071FB39
S315080025806A4B9D4202D19CB956240DE0684B9D4288
S3150800259047D040F22A21644802F063FB44B940F26E
S315080025A07931614802F05DFB2046FFF721F80446C1
S315080025B0AB68D80745D5B44204D24FF40D715A48D2
S315080025C002F04FFBB4FBF6F46F68013CFF2C07F0F2
S315080025D0010704D94FF40F71534802F042FB240651
S315080025E04FB32821284602F095FBAB6C99071CD1FE
S315080025F0AB6CDA071BD4AE6C16F0020619D140F2A2
S315080026004921494802F02DFB284602F087FB2B6931
S31508002610314623F07F4323432B61BDE8F840FFF79B
S315080026206FBF002CC4D15724BEE70526ECE7092660
S31508002630EAE70626E8E72B6923F07F4323432B6165
S31508002640F8BD6B68012B04D04FF41771364802F0B9
S3150800265008FBAB6DDB07AB6848BF760003F0E00309
S31508002660402B42D009D893B1202B1AD040F29E2194
S31508002670BDE8F8402C4802F0F4BA602B42D0802B13
S31508002680F4D106EB4603A34247D801230DE0B6EB87
S31508002690141F04D94FF42171234802F0E2FA1023DB
S315080026A003E0B6EBD40F1AD8082373436401B4FBCE
S315080026B0F3F4204F203CB7EBC40F4FEAC40604D20C
S315080026C040F2A921184802F0CCFA28463E400121DA
S315080026D002F020FB2E63BDE8F84002F01BBB40F277
S315080026E08921114802F0BDFADEE70623B4FBF3F3AD
S315080026F0B34201D30623D8E740F28E210A4802F0F6
S31508002700B0FAF7E7B6EB940F01D80423CDE740F209
S315080027109321054802F0A5FAF7E74FF42671024817
S3150800272002F09FFAB1E700BF525B00080000015BA8
S3150800273000000A50F8FF7F00F8B5774B0446984228
S315080027400E4606D0754B984203D0E221744802F033
S3150800275088FA1EB9E421724802F083FA727BB368DC
S315080027607AB1704A934203D9E6216D4802F079FAA4
S315080027703369C3B1DB7BB3B1E921694802F071FA69
S3150800278011E0694A934203D9EC21654802F069FAD7
S31508002790336943B11A7F32B1B168644A5B7F9142AB
S315080027A078D9042B78D86368356923B140F6FF7168
S315080027B0204602F0AFFA2046FFF778FE2269737BBF
S315080027C0B17B22F087020B43134343F08003236156
S315080027D0002D63D02369297F23F0F80343EAC11348
S315080027E02978EA7B0B43297943EA4113697A43EA54
S315080027F0011343EA82132361E068D5E9053720F01F
S31508002800F0403B4320F470200343287B697B43EA6E
S31508002810802343EAC133E360A368F07B23F0030314
S31508002820034343F00103A3606B88A06803F4C04325
S315080028300343A360A368687943EA8023A360AB795E
S31508002840EF79606A1B013F0203F0700307F4E06743
S3150800285020F4772020F4EE603B430343287A0003F4
S3150800286000F4E0400343687F000400F4702003434B
S3150800287063626369307B23F00F03034363616B89EB
S31508002880A36141BBC2B1244B9C422ED0234B9C4230
S315080028903CD011E0042B86D8F3216EE7A368F27BBF
S315080028A023F00303134343F00103A3606369327BF8
S315080028B023F00F03134363612046D6E90112FFF79D
S315080028C055FE20463178FFF71BFEA36CDB4313F455
S315080028D0405FFAD1F8BD104B9C420CD1AB7B144932
S315080028E003F00F034B67002AE6D02B7C104A03F04F
S315080028F00F031367E0E7094B9C42DDD1AB7B0C491C
S3150800290003F00F03C1F88030002AD5D02B7C084A83
S3150800291003F00F03D367CFE70000015B00000A50FE
S31508002920525B0008002D3101809698003F4B4C0001
S3150800293000900350032838B504460D4605D8094BC0
S3150800294033F81030CB40DB0704D440F28541064803
S3150800295002F087F9302301225C43044BAA401A513E
S3150800296038BD00BF525C0008A85B000840D0035081
S31508002970032838B504460D4605D8094B33F81030F8
S31508002980CB40DB0704D440F25641064802F069F909
S31508002990302301225C43044BAA401A5138BD00BFBC
S315080029A0525C0008A85B000840E0035003282DE9A4
S315080029B0F04104460D461746984605D81D4B33F890
S315080029C01030CB40DB0704D44FF4B0711A4802F03C
S315080029D048F937B129462046B8F1000F20D0FFF74D
S315080029E0A9FF0F21072D04EB440688BFA5F10803AC
S315080029F04FEA0616114895BFAB009B0004360C3605
S31508002A0007FA03F29940304402F0ACF97FB9294637
S31508002A102046B8F1000F06D0BDE8F041FFF78ABF9F
S31508002A20FFF7A6FFDDE7BDE8F041FFF7A1BFBDE868
S31508002A30F08100BF525C0008FD5B000830C00350FF
S31508002A4010B5152000F072FC0024FF22064B214623
S31508002A505C6520209A625C60FEF7A2FD2146BDE80F
S31508002A6010402120FEF79CBD00000450072838B509
S31508002A7004460D4603DD7721084802F0F2F81F2CBC
S31508002A8003D99121064802F0ECF8064A064B002DB8
S31508002A9008BF13460122A2401A6038BD5A5C0008D6
S31508002AA0AE5C0008401004504020045010B504469F
S31508002AB018B991211F4802F0D4F823781B0613F0A1
S31508002AC0604F03D092211B4802F0CBF8E3780F2B16
S31508002AD003D99521174802F0C4F801212020FEF7F2
S31508002AE05FFD01212120FEF75BFD0122124B152017
S31508002AF05A60227812069A606178A27842EA014200
S31508002B009A61FF229A6200229A631A644FF0004281
S31508002B105A654FF0FF3203F500531A6500F056FC6C
S31508002B201520E17800F060FCBDE81040152000F0A3
S31508002B301BBC00BF5A5C000800000450F8B501260B
S31508002B40C3B2072805460C46174606FA03F603DD00
S31508002B50DE21344802F085F81CB9DF21314802F03D
S31508002B6080F8236823F47C1323F00F031BB1E221BA
S31508002B702C4802F076F8A37A1B0413F47C0F03D0D2
S31508002B80E721284802F06DF8E37A1B0513F07E6FFB
S31508002B9003D0E921234802F064F8237B5B0513F090
S31508002BA0FE5F03D0EB211F4802F05BF81E4B27F0AF
S31508002BB003071E65AB00226803F1A04303F58823CB
S31508002BC05A60302202FB05F0637B00F1A04000F555
S31508002BD080200366E37AA27A1B0543EA0243227B36
S31508002BE043EA4253C365076702F024FE0F4B227A75
S31508002BF05E6502B11E64627A02B19E632279A37988
S31508002C0043EA0243084A93616179E37943EA014357
S31508002C1006498B61064B56639E64BDE8F84002F090
S31508002C2004BE00BF5A5C000800200450001004507F
S31508002C300000045010B50124C3B2072804FA03F4AF
S31508002C4004DD40F27B11074802F00BF802F0F2FDB2
S31508002C50054B5A6D22EA04025A659C62BDE810408B
S31508002C6002F0E3BD5A5C00080000045010B50124C8
S31508002C70C3B2072804FA03F404DD40F299110A489E
S31508002C8001F0EFFF02F0D6FD084BDA6A224208D1BE
S31508002C905B6B9C430CBF0124002402F0C6FD204652
S31508002CA010BD0024F9E700BF5A5C00080000045074
S31508002CB070B50125C3B20728044605FA03F504DDF5
S31508002CC04FF4E071094801F0CCFF02F0B3FD302261
S31508002CD0074B5E6B02FB04335C6E02F0A6FD3542C1
S31508002CE00ABFC4F30A100020013070BD5A5C000800
S31508002CF000000450F8B507460C461E4615464AB964
S31508002D0040F25511314801F0ACFF24B1402E09D1EB
S31508002D10062328E021B94FF42070FEF769FC044623
S31508002D20402E42D0402E09D87EB1202E17D04FF41F
S31508002D30CE71BDE8F840254801F093BF602EF6D164
S31508002D40B5EB940F3CD804230DE0B5EB141F04D95A
S31508002D5040F287111D4801F084FF102303E0B5EB0C
S31508002D60D40F1CD808235D436B0803EB4413B3FB4D
S31508002D70F5F3174D203BB5EBC30F4FEAC30404D256
S31508002D8040F2B311114801F06CFF602207F50053B9
S31508002D909A602C4007F580539E60FC61F8BD4FF49D
S31508002DA0C6710A4801F05DFFDCE70623B4FBF3F3BE
S31508002DB0AB42ADD240F29111044801F052FFA7E7A9
S31508002DC04FF4CB71014801F04CFFBCE7025D0008E7
S31508002DD0F8FF7F0038B50C4B044698420D4604D0E0
S31508002DE04FF43971094801F03CFF012204F580537C
S31508002DF05A60EB43934003F00A036361656115B9B2
S31508002E0004F50054626038BD00C00550025D000834
S31508002E10124B10B59842044604D040F25E41104861
S31508002E2001F01FFF012104F58053596040F6AA639B
S31508002E3041F20502636100230A48A360E365E26084
S31508002E4004F500522361E361E36490640348A365D3
S31508002E50844204BF23656365516010BD00C00550F8
S31508002E60025D0008FFFF01002F4B70B5984204462B
S31508002E700D4604D040F215312C4801F0F2FE2046EA
S31508002E80FFF7C6FF012304F580567360AB7C1BB1C0
S31508002E90A36843F08043A360EB7C4BB1224B9C4272
S31508002EA002BF2A7DA3F51033C3F8C8218023F36532
S31508002EB02A8A6B7B20461343EA891343E3602B7BFC
S31508002EC0D5E90112FFF716FF6B7D1BB1A36843F422
S31508002ED08033A360AB7D1BB1A36843F40043A360B2
S31508002EE0EB7D2A7E1B07120502F4E00203F0E0439D
S31508002EF01343A3656B7E9A1E012A4FF0020209D876
S31508002F000B49032BC1F8202709D10423F3652B7835
S31508002F10636170BD0749012BC1F82027F4E7042235
S31508002F2004F50053DA65F2E700C00550025D0008B3
S31508002F3000D0035000E0035010B5044620B940F213
S31508002F403A21104801F08DFE2378C3B1013BDBB26C
S31508002F50022B06D80C4A32F813306278D340DB07C6
S31508002F6004D440F23D21074801F07BFE0122637834
S31508002F7021789A4030235943044B5A5010BDFF23F9
S31508002F80EBE700BF575D0008125E000840E00350FB
S31508002F90034BD3F82424D3F820041040704700BF0D
S31508002FA000C003502DE9F041037804460D46164645
S31508002FB013B3013BDBB2022B06D82A4A32F8133088
S31508002FC06278D340DB0703D45D21274801F049FE28
S31508002FD0264BD3F810331BB16021234801F041FE7C
S31508002FE00F2D0BD8DFE805F036313131313131316B
S31508002FF03131313131313131FF23E1E7B4211A481A
S3150800300001F02FFE4FF00008204606B302F0A8FB99
S315080030100F2167782378072F03EB430388BF083F00
S315080030204FEA0313124895BFBF00BF0004330C33A1
S3150800303008FA07F2B940184401F0A8FE85B92046F7
S3150800304056B1BDE8F04102F08BBBA846DCE7FFF7B6
S3150800305073FFDDE7A846DBE7BDE8F041FFF76CBF85
S31508003060BDE8F081125E0008B55D000800C0035097
S3150800307030C0035030B58D488BB002F0E6FB20B166
S315080030804FF44E718A4801F0ECFD6C46894D0FCD20
S315080030900FC42B68884A2360FF238DF80130D2F8C5
S315080030A04C3113F4802340F0F580D2F850218DF886
S315080030B001309DF801306C46FF2B08BF3F23684658
S315080030C07E4D8DF80130FEF7DFFD3220FEF73EFE1D
S315080030D00FCD0FC40FCD0FC495E8030084E8030095
S315080030E0754BD3F84C21120340F1B880A3F5FE4383
S315080030F01C88B4F5807F28BF8C248DF81940FEF70C
S31508003100BDFD044484F308046D488DF81840FDF7A6
S31508003110F3FA6846FEF7A0FC3220FEF71DFE694862
S31508003120FEF740FF6848FEF7CBFF684802F08DFBC4
S3150800313020B140F2CB115E4801F093FD644C0020AB
S31508003140FEF710FEFEF7E4FE236F002023F00703C8
S3150800315043F003032367FEF705FF236F5D4923F456
S31508003160744323675C4BD3F8FC2012F0807279D144
S31508003170D4F8803023F0030343F00103C4F8803009
S31508003180C1F88020524CD4F8203123F0070343F0CD
S315080031900203C4F82031D4F8283123F0070343F09A
S315080031A00203C4F82831D4F8803123F0030343F02E
S315080031B00103C4F88031D4F8403123F0030343F007
S315080031C00203C4F84031D4F8603123F0030343F016
S315080031D00203C4F86031D4F8403223F0030343F005
S315080031E00203C4F84032D4F8003223F0070343F050
S315080031F00203C4F80032D4F8083223F0070343F078
S315080032000203C4F80832D4F8703223F0030343F0FB
S315080032100103C4F87032D4F8203223F0070343F0D0
S315080032200103C4F82032FEF7FFFB4FF0E02200202E
S31508003230136943F004031361D4F8603223F00703DB
S3150800324043F00103C4F86032D4F8943223F007033C
S3150800325043F00103C4F894320BB030BDD3F85041A3
S31508003260E4B24AE7D3F8FC2022F08072C3F8FC20C7
S31508003270D4F8802022F0030242F00102C4F880202C
S315080032800022C1F88020D3F8FC2042F08072C3F8EF
S31508003290FC2077E74FF07E6393F89C2093F99C30E7
S315080032A0002BFFF606AF8DF8012002E74C5F0008F9
S315080032B08C5E0008085F00080080E00F1C5F0008AD
S315080032C0C017530200B4C404C0EA2101505F0008C5
S315080032D0008000500090005000ED00E007B5094B53
S315080032E018689A889B7900906846ADF804208DF88E
S315080032F00630FFF76DF80C20FFF7A2F8002003B0A0
S315080033005DF804FB445F000813B50024064A6846C6
S31508003310536F43F00103536700948DF80440FEF79A
S315080033208BFF204602B010BD004000504C2810B557
S3150800333004460DD801220A49630904F01F04A24075
S31508003340203341F82320BFF34F8FBFF36F8F10BD93
S3150800335040F22511034801F084FC002CF7DBE9E76D
S3150800336000E100E05C5F00084C2810B5044608D868
S3150800337001236109074A04F01F04A34042F82130DB
S3150800338010BD4FF49871044801F06BFC002CF7DB74
S31508003390EEE700BF00E100E05C5F00084B2810B5CF
S315080033A0044604D940F23B11064801F05AFC064B84
S315080033B0621153F8220004F01F04E040C04300F0F5
S315080033C0010010BD5C5F000800E100E0002808DB92
S315080033D001224309034900F01F008240603341F887
S315080033E02320704700E100E038B500F110035C2B9C
S315080033F004460D4604D94FF4EF710E4801F031FC2E
S315080034000F2D04D940F2DF110A4801F02AFC60B2F8
S315080034100028ACBF00F16040074B4FEA0515EDB236
S31508003420ABBF00F5614000F00F0080F800531D5453
S3150800343038BD00BF5C5F000814ED00E010B502F06F
S31508003440F9F90A4B1A786AB901226FF004041A705E
S3150800345002F0EBF9204605210134FFF7C5FF4C2C95
S31508003460F8D110BDBDE8104002F0DFB94D150020B7
S3150800347010B5044602F0D5F9024B1C6002F0CCF9EF
S31508003480002010BDDC13002010B502F0CAF9034B6A
S315080034901C6802F0C1F9204610BD00BFDC130020ED
S315080034A010B50020144601F086FC022804D018B195
S315080034B0C321024801F0D5FB204610BDD95F00089C
S315080034C0034B0222186800238068194600F070BE74
S315080034D0901500203021037D02464B4303F1A0439B
S315080034E003F58023D86E07491B6F884208D113F06D
S315080034F0020006D0106A136D1B1A584258417047CD
S31508003500002070474E150020302337B5007D0DF199
S315080035100701434303F1A04303F58023DD6E1C6FC7
S3150800352002F0DAF820B140F2F931084801F099FBC7
S315080035309DF8070040B9064B9D4203D184F002046A
S31508003540C4F3400003B030BD0120FBE74B60000820
S315080035504E15002037B504460DF10701007D02F02F
S31508003560BBF820B140F24441114801F07AFB9DF8BE
S315080035700730A3B1256DD4E9122313449D4201D81F
S31508003580AA4204D940F24F41094801F06AFBD4E93E
S31508003590120303449D4218BF284603B030BD3022AB
S315080035A0237D534303F1A04303F58023DD6EE2E751
S315080035B04B6000082DE9F743D0E9043404F17C0791
S315080035C0D0F80C90013B06461022002138469DB2E1
S315080035D0D4F8748001F0CAFD104BC5F30A0543EA16
S315080035E00513C4E91F39012394F8780084F88C3050
S315080035F0C4F884803A460A4B009604F16401FDF744
S31508003600A7FB38B140F28D31064803B0BDE8F04358
S3150800361001F027BB03B0BDE8F08300BF00001030FF
S315080036209D3700084B6000082DE9F04300F1380685
S31508003630044685B010220021304601F097FD4FF46C
S315080036404473534D207DC4E90F556387FDF7A6FBE8
S3150800365020B140F2CA514F4801F003FB1022002165
S31508003660304601F083FD4FF4447363873023207D91
S31508003670C4E90F55434303F1A04303F58023DB6EEA
S31508003680AB420BD1FDF7AAFB002876D040F2D35106
S31508003690404805B0BDE8F04301F0E3BA0DF10B016F
S315080036A002F01AF820B140F2D9513A4801F0D9FA95
S315080036B09DF80B30002B63D12046FFF74BFF03A97B
S315080036C00746207D02F02AF820B140F2E151314840
S315080036D001F0C7FA039B002B04DC40F2E3512D48A6
S315080036E001F0BFFA039B04F11808013B10220021E0
S315080036F040469DB2D4F8109001F038FD3022237D63
S31508003700C5F30A0553432D0145F04075C4E906592A
S3150800371003F1A043276203F580231A6F94F8241057
S31508003720520862F3410184F82410196F94F8242092
S3150800373028F0030861F3000284F824201B6F626AEC
S315080037409B0863F39F0248F0020362626364009475
S3150800375032462146104B207DFDF7FAFA20B140F299
S3150800376004610C4801F07DFA207DFDF737FB20B196
S315080037704FF4C161074801F074FA05B0BDE8F0835B
S3150800378094F844306FF3410384F84430DFE700BF10
S315080037904E1500204B600008A74E000838B555693D
S315080037A0144695F88C3023B940F26A310A4801F07C
S315080037B058FA002305F1900085F88C30FCF7BEFF17
S315080037C008B1FFF7F7FE63681BB100212046A2681F
S315080037D09847002038BD00BF4B60000838B504463E
S315080037E0007DFDF7DBFA20B140F22D41084801F0D3
S315080037F038FA2046FFF76EFE0546207DFDF7EEFAFD
S3150800380020B140F23241024801F02BFA284638BD71
S315080038104B6000082DE9F04F9946002304468DB009
S3150800382008910692C9F80030D9F80060069B9D1BDE
S3150800383000F0C580089B9E1900F0C1802046FFF75E
S31508003840CDFF8046002840F0BA802046FFF782FE6A
S31508003850226D904240F2BC80801A854228BF0546F8
S3150800386094F896A0BAF1000F00F0F28001F0E2FF9A
S31508003870236D079020460993FFF746FE2F46099BBE
S31508003880834658198342D4F8981040F0BC80D4E98E
S31508003890122313448B4208BFC4F89820D4F8981012
S315080038A08A4201D88B4204D840F242518A4801F034
S315080038B0D8F9079801F0B9FFDA46207DFDF76EFAC8
S315080038C020B140F28241844801F0CBF9207D0DF108
S315080038D02F0101F001FF20B140F286417E4801F038
S315080038E0C0F92046FFF736FE236D834698429DF8B9
S315080038F02F3040F2BC8023B140F28E41764801F069
S31508003900B0F9A26C236DAEB2934240F0A880099339
S3150800391004F128082369102200214046079301F084
S3150800392025FC3021079B013EE362099BC6F30A0684
S315080039302363237D36014B4328F0030803F1A04394
S3150800394046F0407648F0020203F58023A6621A671D
S31508003950236DD4E912122B440A44934208BF0B463E
S315080039609342236504D340F2DE415B4801F079F9BE
S31508003970236D9B4505D10123204684F85430FFF773
S3150800398053FE207DFDF72AFA20B140F2F74152484E
S3150800399001F067F994F896303BB1BAF1000F04D0FC
S315080039A0236E112120465B689847D9F8003037B155
S315080039B0069A3B449342C9F80030FFF435AFD9F86C
S315080039C00030002B14BF00201B200DB0BDE8F08F7F
S315080039D0D4E912310B449A4204D340F26A413E4874
S315080039E001F03FF9D4E912321344226D9B1A9D4225
S315080039F028BF1D46002D7FF433AF40F216513648D6
S31508003A0001F02FF92CE701335A1E914210D1C4F860
S31508003A10983013F8012C112A01D0132A14D1013F2A
S31508003A20A2F111014A424A41D04684F89C2029E76E
S31508003A3013F8012C02F0FD01112906D1013FB8F156
S31508003A40000F3FF41FAFEBE7D04606F8012B19E746
S31508003A502A463046216D01F01BFB2F462DE7238DA4
S31508003A60C3F30A12164466F30E13238570E7207D06
S31508003A7093B93023584300F1A04000F58020426EE8
S31508003A80436EC2F30A1223F4FF432A4423F0700359
S31508003A9043EA021343665BE7104B0494039300233F
S31508003AA0CDE90153012300935A462369216801F0A1
S31508003AB0F3F820B140F2CB41074801F0D2F83022A2
S31508003AC0237D534303F1A04303F580235A6E22F462
S31508003AD080125A663CE700BF4B600008A74E0008F4
S31508003AE02DE9F84F90F8943004460D46002B40F027
S31508003AF0858090F89580DFF808918E18B54223D016
S31508003B0094F896306BB12046FFF768FEF8B1D4F802
S31508003B109820236D9A4204D040F2CD21484601F000
S31508003B20A0F894F89C30002BE8D0236E2F462A780C
S31508003B305B68B8F1000F59D1236E20465B68397867
S31508003B40013598470028D9D00020BDE8F88F01F044
S31508003B5071FE0746207DFDF721F920B140F2D321F9
S31508003B60274801F07EF82046FFF7F4FCA26C00F126
S31508003B70FF3A924538BFE36C207D3CBF03F1FF3323
S31508003B8002EB030A94F854B0FDF728F920B140F285
S31508003B90DF211B4801F065F8D4F89810BBF1000F37
S31508003BA022D0236D8B4204D04FF43971144801F0AA
S31508003BB058F8384601F039FEB3E7A26C9A4202D9A2
S31508003BC0E36C013B134499420BD013F80129112ADF
S31508003BD001D0132AF1D1A2F111035A425A4184F8AD
S31508003BE09C20C4F898A0E4E75346ECE70A2AA3D138
S31508003BF00D212046984700289ED0A5E70E20A4E769
S31508003C004B600008F0B50C4615460646A022002172
S31508003C1089B0204601F0AAFA2746AC46BCE80F0050
S31508003C200FC7DCF8003005F1140C3B6004F164079B
S31508003C30BCE80F000FC7DCF80030EA6A3B60AB6AE5
S31508003C40C4E9132395F83020A36484F8952095F8E1
S31508003C503320C4F89830012384F8962084F89C30E1
S31508003C6084F85430AB6B2366324B34607360324B46
S31508003C70B360324BF360324B7361324BB361324BF4
S31508003C803361FDF731F810B1304B98420FD100215E
S31508003C9007A8FCF7B1FF014648B9079B07A8237593
S31508003CA0FCF7AAFF0346207D23B1FCF7F7FF102097
S31508003CB009B0F0BD079B84F87830FDF76FF8002847
S31508003CC0F5D1234B0494CDE90203E36C0193012358
S31508003CD000932369A26C2168207D00F0DDFF00288F
S31508003CE0E5D13022237D4FF48011534342F264021A
S31508003CF003F1A04303F580239950AB6B93F91000A9
S31508003D00FFF764FBAB6B93F91000FFF72DFB04F18B
S31508003D10900000F0A7FF3046FFF7AAFB2046FFF702
S31508003D2083FC207DFDF75AF8003818BF01200001F2
S31508003D30BEE700BFE13A0008174F0008153800082B
S31508003D409B4E0008A14E0008553D0008038000F070
S31508003D50A74E000870B50568044695F89460002ECD
S31508003D603BD101F0FBF8FFF78FFB844202D13046C6
S31508003D70FFF77EFB2B6E93F91000FFF727FB2B6EE0
S31508003D8093F91000FFF7D2FA287D01F085FC20B1DF
S31508003D9040F29721144800F064FF287DFCF77EFF67
S31508003DA020B140F29B21104800F05BFFFCF754FF5E
S31508003DB038B10E4B984204D040F29F210A4800F0D1
S31508003DC050FF0023C4E90033C4E90533E3602B6ED2
S31508003DD02846BDE87040DB68184740F2662102486D
S31508003DE000F03FFF0F2070BD4B600008058000F013
S31508003DF0F8B517461C46564A8B6B069D1A60554AF7
S31508003E005A6000229A60544ADA600A462946FFF741
S31508003E10F9FE0646002840F0948023680121C5F87B
S31508003E20A03063683A20C5F8A430637A85F8A930CB
S31508003E30237A85F8A830E37A85F8AB30A37A85F833
S31508003E40AA30637B85F8AD30237B85F8AC30E37BFD
S31508003E5085F8AF30A37B85F8AE30FDF7A1FB0123CB
S31508003E600422617A207AFEF7A1FD01230222E17A73
S31508003E70A07AFEF79BFD01216068FDF791FB3E7075
S31508003E8039462068FEF7F0FF1420617C334B01F1B8
S31508003E90390252019850607A227A03EB411342EABA
S31508003EA00042C3F83827E17AA27A42EA0142C3F807
S31508003EB0302785F8B0607B7E032B46D8DFE803F011
S31508003EC03943021C022385F8B03000230422E17B23
S31508003ED0A07BFEF76BFD0220617C204B01F1B90245
S31508003EE05201985003EB411341F22C71E07BA27BFF
S31508003EF042EA00425A501CE0012785F8B0300222F7
S31508003F000023617B207BFEF751FD617B227B637C6E
S31508003F1042EA014241F228715B0103F1A04303F52D
S31508003F2070335A500422236803F58053DA65002F4C
S31508003F30CBD120680A4A00F5005305219A64FEF79A
S31508003F4049FF3046F8BD0027D7E72326F9E700BF23
S31508003F50794F0008035000088D4F000800C0035031
S31508003F60FFFF0100F421014800F07BBEB3600008A2
S31508003F700346054A0549106803448B428CBF4FF037
S31508003F80FF301360704700BF8C1500200000042026
S31508003F9010B5044601F00EFB4FF47A729042B0FB5E
S31508003FA0F2F105D23621BDE810400C4800F059BEA2
S31508003FB00B4BB3FBF1F30B49884201D93C21F2E7DD
S31508003FC002FB04F0B0FBF3F0022806D9BDE8104066
S31508003FD00323B0FBF3F0FCF7CBB810BD1C61000857
S31508003FE040420F00E7CD9A3B08B5064B044613B18D
S31508003FF00021AFF30080044B1B6803B198472046A5
S3150800400000F033FF000000001815002070B50D4DB4
S3150800401000260D4C641BA410A64209D10B4D0026A0
S315080040200B4C01F07DFC641BA410A64205D170BDA3
S3150800403055F8043B01369847EEE755F8043B013638
S315080040409847F2E7F4150020F4150020F41500202F
S31508004050F81500200B46034902460868816800F0F7
S31508004060B7B900BF90150020002310B50446836039
S31508004070818119464366C28108228361C0E90033FB
S31508004080C0E904335C3001F071F80D4B24626362B9
S315080040900C4BA3620C4BE3620C4B23630C4B9C4208
S315080040A006D003F16802944202D0D0339C4205D16F
S315080040B004F15800BDE8104001F060B810BD00BF1B
S315080040C0AB500008CD5000080551000829510008DA
S315080040D0E0130020024A0349034801F029B800BF4B
S315080040E0E0150020FD5400089415002041680C4B8B
S315080040F0994210B5044601D001F000FAA168094BAF
S31508004100994202D0204601F0F9F9E168064B994236
S3150800411004D02046BDE8104001F0F0B910BD00BF3C
S31508004120E013002048140020B014002010B50B4BF3
S3150800413004210B4C0B4A20461A600022FFF794FF15
S3150800414004F1680001220921FFF78EFF04F1D0006F
S3150800415002221221BDE81040FFF786BF181500207D
S31508004160E0130020D5400008014801F008B800BF58
S3150800417050150020014801F003B800BF5015002073
S3150800418010B50446FFF7F0FF236A1BB1BDE81040DF
S31508004190FFF7F0BF044B2362044B1B68002BF5D1D5
S315080041A0FFF7C4FFF2E700BFED400008181500202E
S315080041B02DE9F7431D46574B04460E461F689046A1
S315080041C027B13B6A13B93846FFF7DAFFB8F1020F91
S315080041D006D0B8F1010F00F29980002DC0F2968042
S315080041E0636ED90705D4A3899A0502D4A06D00F099
S315080041F0C6FF2146384601F081F9616B41B104F1E9
S315080042004403994202D0384600F098F800236363C5
S315080042100023A3616360A3891B0603D52169384679
S3150800422000F08CF8A389B8F1020F23F44A6323F04F
S315080042300303A38160D001AB6A462146384600F0E5
S31508004240A0FFA3891843A0812DBB009D284600F036
S3150800425069FB0646002851D1DDF80090A9453FD1F3
S315080042604FF0FF35B4F90C3043F00202A281002268
S31508004270A26004F147022260226101226261626E35
S31508004280D60704D4980502D4A06D00F079FF284615
S3150800429003B0BDE8F083002ED8D03B6A13B9384680
S315080042A0FFF76EFFB8F1010F266002BFA38943F03E
S315080042B00103A381B4F90C3013F00802C4E90465BC
S315080042C01ED0D90745BF00226D42A560A26048BF2F
S315080042D0A561626ED20701D49B0513D50025D6E7E2
S315080042E0484600F01FFB06460028B9D0A3894D466C
S315080042F043F08003A381D0E70025B3E7A946F5E795
S31508004300A260E6E7A06D00F03BFFE7E74FF0FF3558
S31508004310BDE700BF9015002038B50446064D08468F
S31508004320114600222A601A46FFF7BAF8431C02D142
S315080043302B6803B1236038BD1C15002038B5054627
S31508004340002941D051F8043C0C1F002BB8BFE418D3
S3150800435000F0D0FB1D4A136833B963601460284621
S31508004360BDE8384000F0CCBBA34208D92068211824
S315080043708B4201BF19685B6809182160EDE71A4688
S315080043805B680BB1A342FAD911685018A0420BD149
S3150800439020680144501811608342E0D118685B68B0
S315080043A0084453601060DAE702D90C232B60D6E77D
S315080043B0206821188B4202BF19685B680918636078
S315080043C008BF21605460CAE738BD00BF2415002025
S315080043D02DE9F04F0D469DB014469846064618B18D
S315080043E0036A0BB9FFF7CCFE6B6ED90705D4AB8908
S315080043F09A0502D4A86D00F0C2FEAB891B0701D549
S315080044002B699BB92946304600F0FAF870B16B6EF5
S31508004410DC0704D54FF0FF301DB0BDE8F08FAB893F
S315080044209805F7D4A86D00F0ABFEF3E70023CDF8A6
S315080044300C804FF00109DFF8B481099320238DF829
S31508004440293030238DF82A3023469A4613F8012B53
S315080044500AB1252AF9D1BAEB040B0BD05B462246E2
S315080044602946304600F005FF013000F0A780099A7A
S315080044705A4409929AF80030002B00F09F800023D6
S315080044804FF0FF320AF1010A049307938DF853306F
S315080044901A93CDE9052354460522544814F8011BFE
S315080044A001F054F8049AD8B9D10644BF20238DF8F0
S315080044B05330130744BF2B238DF853309AF8003036
S315080044C02A2B15D0079A544600204FF00A0C21468D
S315080044D011F8013B303B092B4BD9B0B1079214E0D8
S315080044E0A0EB0803A24609FA03F313430493D2E7A1
S315080044F0039B191D1B68002B0391BBBF5B4242F04F
S31508004500020207930793B8BF049223782E2B0AD189
S3150800451063782A2B32D1039B02341A1D1B6843EA9F
S31508004520E37303920593DFF8D4A00322217850465B
S3150800453001F00CF838B1A0EB0A004022049B0134C4
S3150800454082401343049314F8011B062228488DF869
S31508004550281000F0FBFF00283FD0264B1BBB039B0F
S31508004560073323F0070308330393099B3B44099356
S315080045706AE70CFB02320C460120A8E70023013447
S315080045804FF00A0C19460593204610F8012B303ACD
S31508004590092A03D9002BC6D00591C4E70CFB0121D3
S315080045A004460123F0E703AB2A4604A930460093E4
S315080045B0114BAFF300800746781CD6D16B6ED9072E
S315080045C005D4AB899A0502D4A86D00F0D9FDAB894C
S315080045D05B063FF51FAF09981EE703AB2A4604A9F9
S315080045E030460093044B00F061F8E4E77B6100086D
S315080045F08561000800000000735200088161000808
S3150800460038B5294B05460C46186818B1036A0BB924
S31508004610FFF7B6FDB4F90C30190722D4DA0607D429
S3150800462009222A6043F040034FF0FF30A38133E0AC
S31508004630580712D5616B41B104F14403994202D07F
S315080046402846FFF77BFE00236363A38923F0240330
S31508004650A3810023636023692360A38943F00803C9
S31508004660A38123694BB9A38903F42073B3F5007FAB
S3150800467003D02146284600F0A9FDB4F90C3013F002
S3150800468001020AD00022A26062695242A26122692E
S3150800469042B913F08000C5D138BD990758BF626981
S315080046A0A260F4E70020F7E7901500202DE9FF4700
S315080046B00F7E914680460C46782F9A460C9E01F14D
S315080046C0430207D8622F0AD8002F00F0DD80582F42
S315080046D000F0C38004F1420684F842703AE0A7F17C
S315080046E06303152BF6D801A151F823F045470008B6
S315080046F059470008D5460008D5460008D54600089B
S31508004700D546000859470008D5460008D54600088A
S31508004710D5460008D54600086F480008E747000850
S3150800472027480008D5460008D546000891480008DD
S31508004730D5460008E7470008D5460008D5460008CC
S315080047402F48000833681A1D1B68326004F14206B8
S3150800475084F842300123A8E031682368081D3060D8
S315080047601E0601D50D6803E05D06FBD5B1F90050BC
S31508004770002D616878DA2D200029A16084F84300AD
S315080047802DDA6D425D480A231646B5FBF3F103FBA5
S315080047901157C75D06F8017D2F460D46BB42F4D971
S315080047A0082B0BD12368DF0708D52369616899426E
S315080047B0DEBF302306F8013C06F1FF36921B226164
S315080047C04B4603AA21464046CDF800A000F0A1FDBD
S315080047D001306FD14FF0FF3004B0BDE8F08723F009
S315080047E004032360CDE721683368080653F8045BA1
S315080047F002D4490648BFADB26F2F33603F4814BF95
S315080048000A230823002184F843106668002EA66050
S31508004810BADB216821F004012160002DB4D1002EF5
S31508004820B2D11646BCE7236843F0200323607827F5
S315080048303348236884F845701F06316851F8045BCD
S3150800484002D45F0648BFADB23160D90744BF43F012
S31508004850200323601DB11023D4E72848E9E723681D
S3150800486023F020032360F6E724480A23CDE73368BC
S315080048702568181D616930602E061B6801D5196008
S3150800488002E06806FBD5198000231646236197E7E0
S31508004890336800211A1D32601E686268304600F0CF
S315080048A055FE08B1801B606063682361002384F8A5
S315080048B0433085E72369324649464046D0470130AA
S315080048C088D023689B0714D4E068039B9842B8BF36
S315080048D0184681E70123324649464046D04701300B
S315080048E03FF478AF0135E36803995B1AAB42F1DC14
S315080048F0EAE7002504F11906F5E700BF8C61000810
S315080049009D61000838B50023054D044608462B600E
S3150800491000F0A9FA431C02D12B6803B1236038BD05
S315080049201C150020024B0146186800F025B800BF88
S315080049309015002070B50F4E0C460546316811B922
S3150800494000F0E4F830602146284600F0DFF8431C02
S3150800495003D14FF0FF34204670BDC41C24F0030475
S31508004960A042F8D0211A284600F0D0F80130F2D13A
S31508004970EFE700BF201500202DE9F041CD1C0646C3
S3150800498025F0030508350C2D38BF0C25002D01DB55
S31508004990A94204D90C2333600020BDE8F081314FC9
S315080049A000F0A8F83B681C4644BB29463046FFF78A
S315080049B0C1FF431C044650D13C682146002941D119
S315080049C0002C44D02368304604EB030800F09EF818
S315080049D080453CD1216830466D1A2946FFF7AAFF63
S315080049E0013034D023682B4423603B68002B36D033
S315080049F05A68A24229D100225A600EE02268521B48
S31508004A001DD40B2A16D96119A342256018BF59600F
S31508004A10636808BF396062514B60304600F070F831
S31508004A2004F10B00231D20F00700C21AB5D01B1A8B
S31508004A30A350B2E7A3426268DED13A60EDE72346A7
S31508004A406468B1E70C464968B8E71346CEE70C2315
S31508004A503046336000F054F89EE70560DDE75B609A
S31508004A60FFDE00BF2415002038B50023064D044696
S31508004A70084611462B6000F0F9F9431C02D12B6851
S31508004A8003B1236038BD00BF1C15002038B50023CC
S31508004A90054D044608462B6000F0EDF9431C02D18B
S31508004AA02B6803B1236038BD1C15002038B50446B1
S31508004AB0064D0846114600222A601A4600F0DDF91E
S31508004AC0431C02D12B6803B1236038BD1C15002096
S31508004AD038B50446064D0846114600222A601A468D
S31508004AE000F0CDF9431C02D12B6803B1236038BD11
S31508004AF01C150020014800F042BB00BF4F150020DE
S31508004B00014800F03DBB00BF4F15002038B5002313
S31508004B10054D044608462B60FFF72AFA431C02D1C6
S31508004B202B6803B1236038BD1C15002008B500F0BA
S31508004B306FFAFBF7A7FB00F06DFAFBF7D3FBFAE772
S31508004B407047704770477047704708B5FBF79AFC7F
S31508004B5000F02BF9BDE80840FBF788BC704708B59C
S31508004B60FBF7FCFDFBF7B0FEBDE8084000F054B8C3
S31508004B7008B500F013F8FEF7A3FCFBF747FCBDE801
S31508004B800840FBF7CDBB7047FBF754BC704770472E
S31508004B9070477047FBF748BC704770470F2070474F
S31508004BA070B5002506462C46052C20D8DFE804F00B
S31508004BB003070B0F13175B210820FBF735FE0C21A3
S31508004BC00820FBF731FED1210820FBF72DFE8021B6
S31508004BD00820FBF729FE00210820FBF725FE6C1CA0
S31508004BE02946E4B208202546FBF71EFE0624A4F152
S31508004BF00E03012B05D85A210820FBF715FE0134B0
S31508004C00D2E7102C05D1BDE870405D210820FBF7DE
S31508004C100BBEB31F195DEFE708B5082000F025F8AD
S31508004C20BDE80840082000F02BB8012307B520F09E
S31508004C307F4040EA8170019068460093FFF7B0FF15
S31508004C4003B05DF804FBFEE700239A4200D17047E3
S31508004C5010B550F8234041F8234001339A42F8D161
S31508004C6010BDFEE70023036070474FF06042012342
S31508004C70D2F8001E83400B430020C2F8003E70475E
S31508004C804FF060410122D1F8003E824023EA020338
S31508004C900020C1F8003E704710B588B004460E984B
S31508004CA0009207900D98224606909DF830000590D0
S31508004CB00B9804909DF8280003900020CDE9013058
S31508004CC00B460121FBF7DAFE08B010BD70B50546A4
S31508004CD014460E4600F0A5FD2B685C4034405C4047
S31508004CE02C60BDE8704000F097BD08B500F074FC74
S31508004CF0BDE808400021FCF727BC0029CCBF0121EC
S31508004D000021FCF721BC02214FF42070FDF76AB898
S31508004D1070477047436D0B42FCD1704708B543682E
S31508004D20DA0714D58368DB0702D50369D90707D5DF
S31508004D300A2350218363FFF7EDFF836C9A07FCD1A2
S31508004D40012200F500535A6043689B07FCD408BD4E
S31508004D50836C5A06FCD54164836C1B06FCD5C06B74
S31508004D6080B2704770B5054614460E4600F059FDE8
S31508004D702B685C4034405C402C60BDE8704000F015
S31508004D804BBD83695B06FCD5C163704770B50546A4
S31508004D9014460E4600F045FD2B685C4034405C40E6
S31508004DA02C60BDE8704000F037BD00F000B8002068
S31508004DB07047FEF75FB970B50C46154610B9FEF791
S31508004DC063FB38B143682BB12A462146BDE87040DB
S31508004DD000681847232070BDF7B50D4616461C46D1
S31508004DE048B103B901ACC7685FB1234632462946C4
S31508004DF00068B84706E0FEF747FB04B901AC00288F
S31508004E00F1D1232003B0F0BDF8B50C461546064689
S31508004E1058B9FEF739FB20462946FFF71BF9044621
S31508004E20002CD4BF37200020F8BDFEF72DFB8642A4
S31508004E300746F0D03046FEF71BFB29462046FFF70B
S31508004E4009F904463846FEF713FBE9E70EB403B53D
S31508004E5003AA52F8041B0192FFF7D6FF02B05DF8C9
S31508004E6004EB03B0704700207047FEE74FF4005389
S31508004E7000204B607047012070470020704707B537
S31508004E80002001AB0190FFF7A7FF0198002808BF93
S31508004E904FF0FF3003B05DF804FB80F895107047BB
S31508004EA090F89500704792F8543037B5144633B1E8
S31508004EB0936D0BB1D06D9847002384F8543094F85D
S31508004EC096301BB32046FEF71FFBF8B1236E13215D
S31508004ED020465B6898471025236E20461B680DF10F
S31508004EE00701984778B99DF8073003F0FD02112AA3
S31508004EF005D1A3F111025342534184F89C30013D78
S31508004F0015F0FF05E8D12046FEF78EFB002084F851
S31508004F10540003B030BD90F8943070B505460C4681
S31508004F20C3B10B69B3F5006F16D800F083FC95F88A
S31508004F308C30064665614BB1214605F19000FBF7BA
S31508004F40EBFB304600F071FC002070BD2046FEF7F2
S31508004F5031FBF6E70E20F8E72120F6E738B548B129
S31508004F600024056800F066FCC5E9164400F05DFCFF
S31508004F70204638BD2220FCE7D0F8A0309A691206F0
S31508004F8043BF5B6A00200B701B20704710B50446B0
S31508004F90D0F8A02093695906FCD5002394F8A910E7
S31508004FA01A4694F8A800FDF701FD002394F8AB1003
S31508004FB01A4694F8AA00FDF7F9FC94F8B030DA0717
S31508004FC007D5002394F8AD101A4694F8AC00FDF7FF
S31508004FD0EDFC94F8B0309B0707D5002394F8AF1082
S31508004FE01A4694F8AE00FDF7E1FCD4F8A0000021BB
S31508004FF0FDF7F0FED4F8A4000021FCF7D1FA002052
S3150800500010BD08B5D0F8A000FFF7BBFE002008BD0C
S3150800501000F011B800F031B87047704708B5FFF7CF
S3150800502094FDFFF79CFDFFF7A3FDFFF7ACFDBDE878
S315080050300840FFF7A9BD08B5FFF7EEFFFEF7FEF932
S31508005040FEF74CF9FFF7B5FEFEF75EF9FFF7E5FF49
S3150800505000F007F8FFF782FDBDE80840FFF7DEBF5E
S31508005060704708B5FFF76DFDFFF76CFDFFF76BFDA1
S31508005070FFF76AFDFFF7F4FF08BD08B5FFF786FDE1
S31508005080FFF785FDFFF784FDBDE80840FFF781BD02
S315080050900A44431E914200D1704710B511F8014BDE
S315080050A0914203F8014FF9D110BD10B50C46B1F97C
S315080050B00E10FFF70DFD0028ABBF636DA3891B1803
S315080050C023F48053ACBF6365A38110BD2DE9F0417D
S315080050D01F468B8905460C46DB05164605D5022371
S315080050E00022B1F90E10FFF7E1FCA3893246B4F9A4
S315080050F00E10284623F48053A3813B46BDE8F041B1
S31508005100FFF70AB910B50C46B1F90E10FFF7CEFC39
S31508005110431CA38915BF606523F4805343F4805369
S31508005120A38118BFA38110BDB1F90E10FFF7EABB22
S315080051302DE9F8430746884614460026D4E9019522
S31508005140B9F1010905D52468002CF7D13046BDE828
S31508005150F883AB89012B07D9B5F90E30013303D093
S3150800516029463846C04706436835E9E702440346F8
S31508005170934200D1704703F8011BF9E7704770475F
S31508005180704770B50C46B1F90E1096B01546002951
S315080051901E460CDAA389002113F0800F14BF4023A2
S315080051A04FF48063002031602B6016B070BD6A46EC
S315080051B0FFF75AFC0028EDDB019901F47041A1F5CF
S315080051C00053594259414FF48063EBE78B89F7B591
S315080051D09D0706460C4607D504F14703236023615D
S315080051E00123636103B0F0BD01AB6A46FFF7C9FF4F
S315080051F0009F054630463946FFF7BEFB48B9B4F965
S315080052000C309A05EED423F0030343F00203A3817E
S31508005210E2E7A389206043F08003A381019BC4E9E8
S3150800522004075BB1B4F90E103046FFF72FFC28B11E
S31508005230A38923F0030343F00103A381A3891D4334
S31508005240A581CFE79368013B002B936010B408DA79
S315080052509469A34201DB0A2903D15DF8044B00F0E7
S315080052601AB81368581C1060084619705DF8044B84
S315080052707047F8B506460F461446D518AC4201D114
S31508005280002007E03A4614F8011B3046FFF7DAFF1C
S31508005290431CF3D1F8BDF8B50E461446054618B1B9
S315080052A0036A0BB9FEF76CFFA369A360A3891A0703
S315080052B001D5236943B921462846FFF7A1F918B154
S315080052C04FF0FF373846F8BD2368F6B222693746ED
S315080052D0981A6369834205DC2146284600F00EF9D0
S315080052E00028EDD1A368013BA36023685A1C2260FD
S315080052F01E70431C62699A4204D0A389DB07E1D574
S315080053000A2EDFD12146284600F0F8F80028D9D021
S31508005310D6E72DE9F047164698468A6807460B6988
S315080053200C46DDF820909342B8BF1346336091F8D7
S3150800533043200AB1013333602368990642BF3368B4
S3150800534002333360256815F0060506D104F1190AFB
S31508005350E36832689B1AAB422BDC94F84330226828
S31508005360003B18BF0123920630D404F1430241469C
S315080053703846C847013023D023681A3454F80A2C13
S3150800538003F00603042B0ABF54F80E5C00253368A5
S315080053904FF0000608BFED1A54F8123C08BF25EA7C
S315080053A0E5759342C4BF9B1AED18B5421AD1002081
S315080053B008E00123524641463846C847013003D122
S315080053C04FF0FF30BDE8F0870135C1E7E1185A1CF8
S315080053D030200233224481F8430094F8451082F8BD
S315080053E04310C2E70123224641463846C8470130E2
S315080053F0E6D00136D9E7B1F90C202DE9F0411707B7
S3150800540005460C4656D44B68002B02DC0B6C002B69
S315080054103DDDE66A002E3AD0002312F480522F684A
S31508005420216A2B6025D0626DA389580705D5636864
S31508005430D21A636B0BB1236CD21A216A0023E66A6F
S315080054402846B047411C24D00023636023692360A3
S31508005450A389DA0400D56065616B2F60B9B104F1E0
S315080054604403994202D02846FEF768FF0023636387
S315080054700DE001232846B047461C0246D4D12B68C6
S31508005480002BD1D01D2B01D0162B2AD12F6000203E
S315080054902EE02A68B4F90C3042B11D2A01D0162A2A
S315080054A021D10023636023692360D5E762602269FE
S315080054B02260CEE70F69002FE9D093070E680F60C8
S315080054C00CBF4B690023A6EB07088B60B8F1000FE9
S315080054D0DDDD43463A46216A2846A66AB0470028D3
S315080054E008DCB4F90C3043F040034FF0FF30A381D9
S315080054F0BDE8F0810744A8EB0008E7E738B50B6973
